{
  "from_address": "mtdF1VANxcurU6JSRGsbFKi46BPyanjtJ5",
  "to_address": "n1qkfBL84doCJjfV2jVz51YvxuNgnkX1uy",
  "requested_amount": 0.004,
  "selected_utxo": {
    "txid": "f4d5dfc2879a0b3119df60c9f2468d89aa02e1fc529dc84668beb3784074e2b6",
    "vout": 0,
    "address": "mtdF1VANxcurU6JSRGsbFKi46BPyanjtJ5",
    "amount": 0.01,
    "confirmations": 1,
    "spendable": true,
    "solvable": true,
    "desc": "pkh([f8cbc30a/44h/1h/0h/0/0]02718fe24ddd2be058ad7379ef7e23f0fa4897479cb55c556817cda3549d93b173)#v0spayc6"
  },
  "raw_tx_hex": "0200000001b6e2744078b3be6846c89d52fce102aa898d46f2c960df19310b9a87c2dfd5f40000000000fdffffff01801a0600000000001976a914def0b4b54dbd528bb72e42b09758ef0c0bf126fe88ac00000000",
  "funded_tx": {
    "hex": "0200000001b6e2744078b3be6846c89d52fce102aa898d46f2c960df19310b9a87c2dfd5f40000000000fdffffff02801a0600000000001976a914def0b4b54dbd528bb72e42b09758ef0c0bf126fe88acf61e0900000000001976a91451c603d8802a2fde33526e838fbb63838be3d7e988ac00000000",
    "fee": 2.25e-05,
    "changepos": 1
  },
  "signed_tx_hex": "0200000001b6e2744078b3be6846c89d52fce102aa898d46f2c960df19310b9a87c2dfd5f4000000006a4730440220680a747d721d6bc252c77f73328e2cb4e6924823bcc4070d3555c15268f79f0d02204c88880191a70dc70d5c6575fff2ddafa02babd6915d6ff6261495a223d1736f012102718fe24ddd2be058ad7379ef7e23f0fa4897479cb55c556817cda3549d93b173fdffffff02801a0600000000001976a914def0b4b54dbd528bb72e42b09758ef0c0bf126fe88acf61e0900000000001976a91451c603d8802a2fde33526e838fbb63838be3d7e988ac00000000",
  "txid": "2c1640b2aadf4723ace7d0f0a6564e746b4498853422fd6ff404a21d1a6214e8",
  "decoded_tx": {
    "txid": "2c1640b2aadf4723ace7d0f0a6564e746b4498853422fd6ff404a21d1a6214e8",
    "hash": "2c1640b2aadf4723ace7d0f0a6564e746b4498853422fd6ff404a21d1a6214e8",
    "version": 2,
    "size": 225,
    "vsize": 225,
    "weight": 900,
    "locktime": 0,
    "vin": [
      {
        "txid": "f4d5dfc2879a0b3119df60c9f2468d89aa02e1fc529dc84668beb3784074e2b6",
        "vout": 0,
        "scriptSig": {
          "asm": "30440220680a747d721d6bc252c77f73328e2cb4e6924823bcc4070d3555c15268f79f0d02204c88880191a70dc70d5c6575fff2ddafa02babd6915d6ff6261495a223d1736f[ALL] 02718fe24ddd2be058ad7379ef7e23f0fa4897479cb55c556817cda3549d93b173",
          "hex": "4730440220680a747d721d6bc252c77f73328e2cb4e6924823bcc4070d3555c15268f79f0d02204c88880191a70dc70d5c6575fff2ddafa02babd6915d6ff6261495a223d1736f012102718fe24ddd2be058ad7379ef7e23f0fa4897479cb55c556817cda3549d93b173"
        },
        "sequence": 4294967293
      }
    ],
    "vout": [
      {
        "value": 0.004,
        "n": 0,
        "scriptPubKey": {
          "asm": "OP_DUP OP_HASH160 def0b4b54dbd528bb72e42b09758ef0c0bf126fe OP_EQUALVERIFY OP_CHECKSIG",
          "desc": "addr(n1qkfBL84doCJjfV2jVz51YvxuNgnkX1uy)#xv267zcq",
          "hex": "76a914def0b4b54dbd528bb72e42b09758ef0c0bf126fe88ac",
          "address": "n1qkfBL84doCJjfV2jVz51YvxuNgnkX1uy",
          "type": "pubkeyhash"
        }
      },
      {
        "value": 0.0059775,
        "n": 1,
        "scriptPubKey": {
          "asm": "OP_DUP OP_HASH160 51c603d8802a2fde33526e838fbb63838be3d7e9 OP_EQUALVERIFY OP_CHECKSIG",
          "desc": "addr(mnyLEv9ps9xoBVUDkJeocJKY64LNiuTnQB)#qug560dc",
          "hex": "76a91451c603d8802a2fde33526e838fbb63838be3d7e988ac",
          "address": "mnyLEv9ps9xoBVUDkJeocJKY64LNiuTnQB",
          "type": "pubkeyhash"
        }
      }
    ]
  },
  "tx_summary": {
    "txid": "2c1640b2aadf4723ace7d0f0a6564e746b4498853422fd6ff404a21d1a6214e8",
    "hash": "2c1640b2aadf4723ace7d0f0a6564e746b4498853422fd6ff404a21d1a6214e8",
    "version": 2,
    "size": 225,
    "vsize": 225,
    "weight": 900,
    "locktime": 0,
    "vin_count": 1,
    "vout_count": 2
  },
  "script_view": {
    "tx_summary": {
      "txid": "2c1640b2aadf4723ace7d0f0a6564e746b4498853422fd6ff404a21d1a6214e8",
      "hash": "2c1640b2aadf4723ace7d0f0a6564e746b4498853422fd6ff404a21d1a6214e8",
      "version": 2,
      "size": 225,
      "vsize": 225,
      "weight": 900,
      "locktime": 0,
      "vin_count": 1,
      "vout_count": 2
    },
    "inputs": [
      {
        "txid": "f4d5dfc2879a0b3119df60c9f2468d89aa02e1fc529dc84668beb3784074e2b6",
        "vout": 0,
        "sequence": 4294967293,
        "scriptsig_asm": "30440220680a747d721d6bc252c77f73328e2cb4e6924823bcc4070d3555c15268f79f0d02204c88880191a70dc70d5c6575fff2ddafa02babd6915d6ff6261495a223d1736f[ALL] 02718fe24ddd2be058ad7379ef7e23f0fa4897479cb55c556817cda3549d93b173",
        "scriptsig_hex": "4730440220680a747d721d6bc252c77f73328e2cb4e6924823bcc4070d3555c15268f79f0d02204c88880191a70dc70d5c6575fff2ddafa02babd6915d6ff6261495a223d1736f012102718fe24ddd2be058ad7379ef7e23f0fa4897479cb55c556817cda3549d93b173",
        "txinwitness": []
      }
    ],
    "outputs": [
      {
        "value": 0.004,
        "n": 0,
        "scriptpubkey_type": "pubkeyhash",
        "scriptpubkey_asm": "OP_DUP OP_HASH160 def0b4b54dbd528bb72e42b09758ef0c0bf126fe OP_EQUALVERIFY OP_CHECKSIG",
        "scriptpubkey_hex": "76a914def0b4b54dbd528bb72e42b09758ef0c0bf126fe88ac",
        "address": "n1qkfBL84doCJjfV2jVz51YvxuNgnkX1uy",
        "addresses": []
      },
      {
        "value": 0.0059775,
        "n": 1,
        "scriptpubkey_type": "pubkeyhash",
        "scriptpubkey_asm": "OP_DUP OP_HASH160 51c603d8802a2fde33526e838fbb63838be3d7e9 OP_EQUALVERIFY OP_CHECKSIG",
        "scriptpubkey_hex": "76a91451c603d8802a2fde33526e838fbb63838be3d7e988ac",
        "address": "mnyLEv9ps9xoBVUDkJeocJKY64LNiuTnQB",
        "addresses": []
      }
    ]
  },
  "recipient_output": {
    "value": 0.004,
    "n": 0,
    "scriptPubKey": {
      "asm": "OP_DUP OP_HASH160 def0b4b54dbd528bb72e42b09758ef0c0bf126fe OP_EQUALVERIFY OP_CHECKSIG",
      "desc": "addr(n1qkfBL84doCJjfV2jVz51YvxuNgnkX1uy)#xv267zcq",
      "hex": "76a914def0b4b54dbd528bb72e42b09758ef0c0bf126fe88ac",
      "address": "n1qkfBL84doCJjfV2jVz51YvxuNgnkX1uy",
      "type": "pubkeyhash"
    }
  }
}