{
  "from_address": "2NCyza1x1gcDC5F9pJktPKMFm4bLPGt6Wew",
  "to_address": "2N859z6m1Epz9328qAcaX95ry5Rmk4n113x",
  "requested_amount": 0.0025,
  "selected_utxo": {
    "txid": "d2c707f2160bf56dee0acc861a7451114ff7b4baa47fc57e24c911865b6d30a0",
    "vout": 1,
    "address": "2NCyza1x1gcDC5F9pJktPKMFm4bLPGt6Wew",
    "amount": 0.004,
    "confirmations": 1,
    "spendable": true,
    "solvable": true,
    "desc": "sh(wpkh([f8cbc30a/49h/1h/0h/0/1]02929cb1dfedc2f684595109b4d093bf1ef1b99c9fb5b5183a8714094d1db45beb))#c48t96hm"
  },
  "raw_tx_hex": "0200000001a0306d5b8611c9247ec57fa4bab4f74f1151741a86cc0aee6df50b16f207c7d20100000000fdffffff0190d003000000000017a914a2a262ad910c7f918a31e3585a5a2140b541680e8700000000",
  "funded_tx": {
    "hex": "0200000001a0306d5b8611c9247ec57fa4bab4f74f1151741a86cc0aee6df50b16f207c7d20100000000fdffffff02744302000000000017a9149854b3266e1b6114a739478cedc76bea0e7af94c8790d003000000000017a914a2a262ad910c7f918a31e3585a5a2140b541680e8700000000",
    "fee": 1.66e-05,
    "changepos": 0
  },
  "signed_tx_hex": "02000000000101a0306d5b8611c9247ec57fa4bab4f74f1151741a86cc0aee6df50b16f207c7d20100000017160014946dc5dfcfa43c5614359765a564987ec53b17c9fdffffff02744302000000000017a9149854b3266e1b6114a739478cedc76bea0e7af94c8790d003000000000017a914a2a262ad910c7f918a31e3585a5a2140b541680e8702473044022057a4bc1e433a463a5d4b54b63da4df5eb177d6074cccc2b7df3603fce74376e20220384d3e8b5e40b93f55231706d6c22c76f761a32d4f2aab7f82034bce1f0c301c012102929cb1dfedc2f684595109b4d093bf1ef1b99c9fb5b5183a8714094d1db45beb00000000",
  "txid": "a921fcc36ec34c503be92c37fc661969cd48efc5d3cef542d2dd9b5efec4dec2",
  "decoded_tx": {
    "txid": "a921fcc36ec34c503be92c37fc661969cd48efc5d3cef542d2dd9b5efec4dec2",
    "hash": "f34fd987f62ce0a84d73348603e72a3227b1c5d6794421618633983d4601a433",
    "version": 2,
    "size": 247,
    "vsize": 166,
    "weight": 661,
    "locktime": 0,
    "vin": [
      {
        "txid": "d2c707f2160bf56dee0acc861a7451114ff7b4baa47fc57e24c911865b6d30a0",
        "vout": 1,
        "scriptSig": {
          "asm": "0014946dc5dfcfa43c5614359765a564987ec53b17c9",
          "hex": "160014946dc5dfcfa43c5614359765a564987ec53b17c9"
        },
        "txinwitness": [
          "3044022057a4bc1e433a463a5d4b54b63da4df5eb177d6074cccc2b7df3603fce74376e20220384d3e8b5e40b93f55231706d6c22c76f761a32d4f2aab7f82034bce1f0c301c01",
          "02929cb1dfedc2f684595109b4d093bf1ef1b99c9fb5b5183a8714094d1db45beb"
        ],
        "sequence": 4294967293
      }
    ],
    "vout": [
      {
        "value": 0.0014834,
        "n": 0,
        "scriptPubKey": {
          "asm": "OP_HASH160 9854b3266e1b6114a739478cedc76bea0e7af94c OP_EQUAL",
          "desc": "addr(2N78gAVFF9CmVKiastQThZrEcrPkH4EAEZT)#7z45al7g",
          "hex": "a9149854b3266e1b6114a739478cedc76bea0e7af94c87",
          "address": "2N78gAVFF9CmVKiastQThZrEcrPkH4EAEZT",
          "type": "scripthash"
        }
      },
      {
        "value": 0.0025,
        "n": 1,
        "scriptPubKey": {
          "asm": "OP_HASH160 a2a262ad910c7f918a31e3585a5a2140b541680e OP_EQUAL",
          "desc": "addr(2N859z6m1Epz9328qAcaX95ry5Rmk4n113x)#neullkfk",
          "hex": "a914a2a262ad910c7f918a31e3585a5a2140b541680e87",
          "address": "2N859z6m1Epz9328qAcaX95ry5Rmk4n113x",
          "type": "scripthash"
        }
      }
    ]
  },
  "tx_summary": {
    "txid": "a921fcc36ec34c503be92c37fc661969cd48efc5d3cef542d2dd9b5efec4dec2",
    "hash": "f34fd987f62ce0a84d73348603e72a3227b1c5d6794421618633983d4601a433",
    "version": 2,
    "size": 247,
    "vsize": 166,
    "weight": 661,
    "locktime": 0,
    "vin_count": 1,
    "vout_count": 2
  },
  "script_view": {
    "tx_summary": {
      "txid": "a921fcc36ec34c503be92c37fc661969cd48efc5d3cef542d2dd9b5efec4dec2",
      "hash": "f34fd987f62ce0a84d73348603e72a3227b1c5d6794421618633983d4601a433",
      "version": 2,
      "size": 247,
      "vsize": 166,
      "weight": 661,
      "locktime": 0,
      "vin_count": 1,
      "vout_count": 2
    },
    "inputs": [
      {
        "txid": "d2c707f2160bf56dee0acc861a7451114ff7b4baa47fc57e24c911865b6d30a0",
        "vout": 1,
        "sequence": 4294967293,
        "scriptsig_asm": "0014946dc5dfcfa43c5614359765a564987ec53b17c9",
        "scriptsig_hex": "160014946dc5dfcfa43c5614359765a564987ec53b17c9",
        "txinwitness": [
          "3044022057a4bc1e433a463a5d4b54b63da4df5eb177d6074cccc2b7df3603fce74376e20220384d3e8b5e40b93f55231706d6c22c76f761a32d4f2aab7f82034bce1f0c301c01",
          "02929cb1dfedc2f684595109b4d093bf1ef1b99c9fb5b5183a8714094d1db45beb"
        ]
      }
    ],
    "outputs": [
      {
        "value": 0.0014834,
        "n": 0,
        "scriptpubkey_type": "scripthash",
        "scriptpubkey_asm": "OP_HASH160 9854b3266e1b6114a739478cedc76bea0e7af94c OP_EQUAL",
        "scriptpubkey_hex": "a9149854b3266e1b6114a739478cedc76bea0e7af94c87",
        "address": "2N78gAVFF9CmVKiastQThZrEcrPkH4EAEZT",
        "addresses": []
      },
      {
        "value": 0.0025,
        "n": 1,
        "scriptpubkey_type": "scripthash",
        "scriptpubkey_asm": "OP_HASH160 a2a262ad910c7f918a31e3585a5a2140b541680e OP_EQUAL",
        "scriptpubkey_hex": "a914a2a262ad910c7f918a31e3585a5a2140b541680e87",
        "address": "2N859z6m1Epz9328qAcaX95ry5Rmk4n113x",
        "addresses": []
      }
    ]
  },
  "recipient_output": {
    "value": 0.0025,
    "n": 1,
    "scriptPubKey": {
      "asm": "OP_HASH160 a2a262ad910c7f918a31e3585a5a2140b541680e OP_EQUAL",
      "desc": "addr(2N859z6m1Epz9328qAcaX95ry5Rmk4n113x)#neullkfk",
      "hex": "a914a2a262ad910c7f918a31e3585a5a2140b541680e87",
      "address": "2N859z6m1Epz9328qAcaX95ry5Rmk4n113x",
      "type": "scripthash"
    }
  }
}